:020000040800F2
:1000000000280020F1170008E1150008E715000896
:10001000ED150008F3150008F915000800000000B0
:10002000000000000000000000000000FF150008B4
:100030000B16000800000000171600082316000821
:10004000391800083918000839180008391800084C
:10005000391800083918000839180008391800083C
:10006000391800083918000839180008391800082C
:10007000391800083918000839180008391800081C
:10008000391800083918000839180008391800080C
:1000900039180008391800083918000839180008FC
:1000A00039180008391800083918000839180008EC
:1000B000311600083918000800000000391800083F
:1000C000391800080000000000000000391800087E
:1000D000000000003918000839180008000000006E
:1000E0003918000839180008391800080000000005
:1000F0000000000000000000000000000000000000
:0C01000000000000000000005FF808F1A3
:10010C0010B5054C237833B9044B13B10448AFF345
:10011C0000800123237010BD980000200000000017
:10012C00682E000808B5034B1BB103490348AFF315
:10013C00008008BD000000009C000020682E000814
:10014C0080B400AF064B1B68012B04D1044B00227A
:10015C001A60012300E000231846BD4680BC70479E
:10016C00B400002080B500AF214B1B68214A1360FE
:10017C00214B1B681E4A13604FF400511F4801F0BD
:10018C0041FE03461A461C4B1A601A4B1A68184B50
:10019C001B689A4229D1164B1A68174B1B689A4256
:1001AC0023D1174B1A68144B1B689A420ED0124B72
:1001BC001B68134A1360104B1B68002B15D1114B95
:1001CC0001221A60104BC8221A600EE00E4B1B68FD
:1001DC00013B0D4A13600C4B1B68002B05D1084BDF
:1001EC0001221A60084BC8221A6000BF80BD00BFF4
:1001FC000400002000000020080000200010014036
:10020C000C000020B40000201000002080B400AFCF
:10021C00064B1B68012B04D1044B00221A600123EE
:10022C0000E000231846BD4680BC7047B800002093
:10023C0080B500AF214B1B68214A1360214B1B6812
:10024C001E4A13604FF480411F4801F0DBFD03464A
:10025C001A461C4B1A601A4B1A68184B1B689A42A8
:10026C0029D1164B1A68174B1B689A4223D1174B8E
:10027C001A68144B1B689A420ED0124B1B68134A17
:10028C001360104B1B68002B15D1114B01221A6007
:10029C00104BC8221A600EE00E4B1B68013B0D4A36
:1002AC0013600C4B1B68002B05D1084B01221A6004
:1002BC00084BC8221A6000BF80BD00BF1800002088
:1002CC00140000201C000020001001402000002021
:1002DC00B80000202400002080B400AF064B1B683F
:1002EC00012B04D1044B00221A60012300E00023EF
:1002FC001846BD4680BC7047BC00002080B500AFDE
:10030C00214B1B68214A1360214B1B681E4A13604A
:10031C004FF400411F4801F075FD03461A461C4B73
:10032C001A601A4B1A68184B1B689A4229D1164B43
:10033C001A68174B1B689A4223D1174B1A68144B37
:10034C001B689A420ED0124B1B68134A1360104B59
:10035C001B68002B15D1114B01221A60104BC822BF
:10036C001A600EE00E4B1B68013B0D4A13600C4BE0
:10037C001B68002B05D1084B01221A60084BC822C0
:10038C001A6000BF80BD00BF2C0000202800002098
:10039C00300000200010014034000020BC00002080
:1003AC003800002080B483B000AF78607B68012BEC
:1003BC00B8BF012318460C37BD4680BC704780B4CB
:1003CC0083B000AF786039607A683B689A4201DD8F
:1003DC003B687B607B68012BB8BF012318460C3748
:1003EC00BD4680BC704780B485B000AFF860B96082
:1003FC007A60BA687B681344FA689A4201D1012387
:10040C0000E0002318461437BD4680BC704700003E
:10041C0080B500AF894B1B68894A1168894A1268FC
:10042C001846FFF7E0FF0346002B00F01382864BC3
:10043C001B68013B052B00F2648201A252F823F0E9
:10044C0065040008AF0400087B0500087D06000861
:10045C004907000815080008042000F0C7FC042018
:10046C0000F022FD754B1B68784A1360744B1B68B7
:10047C00774A1360734B1B68764A1360724B0222E7
:10048C001A60754B01221A60734B1B68734A136018
:10049C00724B1B68724A1360714B1B68714A136074
:1004AC0038E2704B1B68002B20D06F4B00221A6077
:1004BC006E4B00221A60624B1B684FF47A7202FB7F
:1004CC0003F3184601F0BEF84FF47A7001F03CF9D2
:1004DC005B4B1B685E4A1360594B1A68594B1B687F
:1004EC0013445A4A13605F4B00221A60002000F03C
:1004FC007DFC022000F0D8FC5C4B1B68002B18D054
:10050C005A4B00221A604FF47A7001F01DF9504BCF
:10051C001B68012B04DD4E4B1B68013B4C4A1360DE
:10052C004A4B1B68012B04DD484B1B68013B474AB7
:10053C001360474B1B681846FFF734FF03461846F9
:10054C0000F0D0FB414B1B681846FFF72BFF03460E
:10055C00184600F009FC444B1B68002B00F0D381BB
:10056C00394B03221A603E4B01221A60CBE13C4B03
:10057C001B68002B1DD03C4B00221A603B4B002209
:10058C001A60304B1B684FF47A7202FB03F3184667
:10059C0001F058F84FF47A7001F0D6F8294B1B682B
:1005AC002C4A1360274B1B68284A13602C4B0022E3
:1005BC001A60012000F01AFC022000F075FC2B4B95
:1005CC001B68002B18D0294B00221A604FF47A704C
:1005DC0001F0BAF81F4B1B68012B04DD1D4B1B6887
:1005EC00013B1C4A1360194B1B68012B04DD174B94
:1005FC001B68013B154A1360164B1B68114A1268A5
:10060C0011461846FFF7DBFE0346184600F06AFB5E
:10061C000E4B1B681846FFF7C5FE0346184600F044
:10062C00A3FB114B1B68002B00F06F81064B0422BF
:10063C001A600A4B01221A6067E100BF3C000020DF
:10064C004000002044000020C000002010010020C9
:10065C000C01002014010020480000204C00002058
:10066C005000002054000020EC0000200401002069
:10067C00A94B1B68002B20D0A84B00221A60A84B5A
:10068C0000221A60A74B1B684FF47A7202FB03F32B
:10069C00184600F0D7FF4FF47A7001F055F8A14BD3
:1006AC001B68A14A13609F4B1A68A04B1B6813442C
:1006BC009F4A1360984B00221A60022000F096FBB0
:1006CC00002000F0F1FB964B1B68002B18D0944BCC
:1006DC0000221A604FF47A7001F036F8924B1B68C6
:1006EC00012B04DD904B1B68013B8F4A1360904B30
:1006FC001B68012B04DD8E4B1B68013B8C4A13607D
:10070C008B4B1B681846FFF74DFE0346184600F04E
:10071C00E9FA854B1B681846FFF744FE034618465A
:10072C0000F022FB7D4B1B68002B00F0F080814B0E
:10073C0005221A60804B01221A60E8E07E4B1B6890
:10074C00002B1DD0754B00221A60754B00221A60CD
:10075C00764B1B684FF47A7202FB03F3184600F0D9
:10076C0071FF4FF47A7000F0EFFF704B1B68734A07
:10077C0013606E4B1B686E4A13606F4B00221A603D
:10078C00022000F033FB012000F08EFB644B1B6851
:10079C00002B18D0624B00221A604FF47A7000F0D4
:1007AC00D3FF664B1B68012B04DD644B1B68013BBC
:1007BC00624A13605E4B1B68012B04DD5C4B1B68AB
:1007CC00013B5B4A13605A4B1B681846FFF7EAFD66
:1007DC000346184600F086FA584B1B68534A1268B9
:1007EC0011461846FFF7EBFD0346184600F0BCFA1D
:1007FC004A4B1B68002B00F08C804E4B02221A6077
:10080C004F4B01221A6084E0012240214D4801F037
:10081C0010FB01224FF480714A4801F00AFB0122BF
:10082C008021484801F005FB01224FF40071454836
:10083C0001F0FFFA01224FF40061424801F0F9FA8D
:10084C0001224FF480613F4801F0F3FA394B072243
:10085C001A605FE03C4B1B68002B29D03B4B1B689C
:10086C00002B57D101224021364801F0E2FA012237
:10087C004FF48071334801F0DCFA012280213148B9
:10088C0001F0D7FA01224FF400712E4801F0D1FA91
:10089C0001224FF400612B4801F0CBFA01224FF4F6
:1008AC008061284801F0C5FA284B01221A6031E01A
:1008BC0000224021234801F0BCFA00224FF4807141
:1008CC00204801F0B6FA002280211E4801F0B1FA4E
:1008DC0000224FF400711B4801F0ABFA00224FF4D8
:1008EC000061184801F0A5FA00224FF48061154808
:1008FC0001F09FFA582000F0F5F9582000F034FA76
:10090C0008E000BF06E000BF04E000BF02E000BF4B
:10091C0000E000BF00BF80BD4C000020EC000020B8
:10092C0004010020400000200C01002044000020A5
:10093C0010010020C00000204800002014010020FD
:10094C005400002000080140C8000020C400002012
:10095C0080B500AFFFF7F4FB0346012B15D10C4B10
:10096C001B6801330A4A1360094B1B68032B02DD19
:10097C00074B00221A60064B1B68064A52F82330BC
:10098C00054A1360054B00221A6000BF80BD00BFF2
:10099C00CC00002058000020C8000020D40000200B
:1009AC0080B500AFA34B1B68002B04D1A24B1B6876
:1009BC000E2B00F03681A04B1B680A3B032B00F278
:1009CC00328101A252F823F0E5090008030A00085D
:1009DC00D30A0008810B0008964B1B68012B40F0D2
:1009EC002481954B0E221A60944B01221A60914B74
:1009FC0000221A6019E1924B1B68002B08D18F4B17
:100A0C0006221A608E4B01221A608A4B01221A6050
:100A1C008C4B1B68012B0FD18A4B00221A604FF4B0
:100A2C00FA7000F091FE4021874801F01AFA4FF459
:100A3C000071854801F015FAFFF7E8FB0346012B1E
:100A4C000CD1824B1B68622B05DC804B1B6801337D
:100A5C007E4A136002E07D4B01221A60022000F0F6
:100A6C0041F97A4B1B68184600F07EF9FFF734FC0D
:100A7C000346012B40F0DB80744B1B68744A1360F7
:100A8C006D4B0A221A60734B00221A60704B1A6865
:100A9C00714B1B68D31A002B0BDD6D4B1A686E4B18
:100AAC001B68D31A6D4A13606C4B1B686C4A13603D
:100ABC00BDE0674B0A221A60684B08221A60664B2D
:100ACC0002221A60B3E05E4B1B68002B08D15B4B13
:100ADC0006221A605A4B01221A60564B01221A60E8
:100AEC00584B1B68012B0FD1564B00221A604FF448
:100AFC00FA7000F029FE8021534801F0B2F94FF44E
:100B0C008061514801F0ADF9FFF780FB0346012BE2
:100B1C000CD1544B1B68622B05DC524B1B68013308
:100B2C00504A136002E04F4B01221A60032000F080
:100B3C00D9F84C4B1B68184600F016F9FFF7CCFBA4
:100B4C000346012B40F09080464B1B68424A1360D1
:100B5C00394B0A221A603F4B00221A603E4B1A682E
:100B6C003E4B1B6813443A4A1360394B1B68374A97
:100B7C00136079E0324B1B68002B08D12F4B0622F7
:100B8C001A602F4B01221A602A4B01221A602D4B3E
:100B9C001B68012B10D12B4B00221A604FF4FA70FA
:100BAC0000F0D2FD4FF48071274801F05AF94FF450
:100BBC000061254801F055F9FFF728FB0346012B8E
:100BCC000CD1274B1B68622B05DC254B1B680133B2
:100BDC00234A136002E0224B01221A60042000F029
:100BEC0081F81F4B1B68184600F0BEF8FFF774FB2A
:100BFC000346012B3AD11A4B1B68184A13600E4B53
:100C0C000A221A60134B00221A60134B1A68134BFA
:100C1C001B6813440E4A13600D4B1B680B4A136080
:100C2C0024E000BF23E000BF21E000BF1FE000BFB5
:100C3C001DE000BFD0000020C8000020C000002034
:100C4C00D4000020040100200008014068000020AE
:100C5C003C000020CC00002044000020400000207C
:100C6C00700000206C00002000BF00E000BF80BDC1
:100C7C0080B485B000AF7860094A7B6813441B7858
:100C8C0003F07F03FB73074BDB6823F07F02FB7BD6
:100C9C0004491343CB6000BF1437BD4680BC70477A
:100CAC0074000020000C014080B485B000AF786067
:100CBC000A4A7B6813441B7803F07F03FB73084BD1
:100CCC00DB6823F47E53FA7BD2011146044A0B43B2
:100CDC00D36000BF1437BD4680BC70477400002041
:100CEC00000C014080B584B000AF78607B681B4A73
:100CFC0082FB03129210DB17D31AFB607A68174B36
:100D0C0083FB02139910D317C91A0B469B000B4493
:100D1C005B00D31ABB60124B1B68002B0DD1002259
:100D2C000221104801F085F8012204210D4801F040
:100D3C0080F8F868FFF79CFF0CE0012202210948BB
:100D4C0001F077F800220421064801F072F8B86827
:100D5C00FFF78EFF00BF1037BD4680BD6766666625
:100D6C00D80000200008014080B584B000AF786046
:100D7C007B681B4A82FB03129210DB17D31AFB60B1
:100D8C007A68174B83FB02139910D317C91A0B46B9
:100D9C009B000B445B00D31ABB60124B1B68002BEF
:100DAC000DD100220821104801F043F80122102136
:100DBC000D4801F03EF8F868FFF776FF0CE00122D1
:100DCC000821094801F035F800221021064801F0ED
:100DDC0030F8B868FFF768FF00BF1037BD4680BD1C
:100DEC0067666666D80000200008014080B582B0B6
:100DFC0000AF78607B68022B2BD07B68022B39DC30
:100E0C007B68002B03D07B68012B11D032E00122D0
:100E1C004021244801F00DF800224FF48071214844
:100E2C0001F007F8012280211E4801F002F834E09D
:100E3C00012240211B4800F0FCFF01224FF480717D
:100E4C00184800F0F6FF00228021164800F0F1FF50
:100E5C0023E000224021134800F0EBFF01224FF465
:100E6C008071104800F0E5FF012280210D4800F050
:100E7C00E0FF12E001224FF400710A4800F0D9FFA4
:100E8C0001224FF40061074800F0D3FF01224FF418
:100E9C008061044800F0CDFF00BF00BF0837BD469D
:100EAC0080BD00BF0008014080B582B000AF786003
:100EBC007B68022B2FD07B68022B3FDC7B68002BDE
:100ECC0003D07B68012B13D038E001224FF4007162
:100EDC00264800F0AEFF00224FF40061234800F0DA
:100EEC00A8FF01224FF48061204800F0A2FF38E0F7
:100EFC0001224FF400711D4800F09BFF01224FF4BA
:100F0C0000611A4800F095FF00224FF480611748E9
:100F1C0000F08FFF25E000224FF40071134800F021
:100F2C0088FF01224FF40061104800F082FF01227B
:100F3C004FF480610D4800F07CFF12E001224FF469
:100F4C0000710A4800F075FF01224FF40061074858
:100F5C0000F06FFF01224FF48061044800F069FF3C
:100F6C0000BF00BF0837BD4680BD00BF0008014070
:100F7C0080B500AF2021024800F073FF00BF80BD98
:100F8C000008014080B500AF084B1B68012B0BD14A
:100F9C00074B1B68C3F10103054A1360034B002286
:100FAC001A60FA2000F09CFB00BF80BDFC00002002
:100FBC00D800002080B500AF00F03AFC00F06CF8CF
:100FCC0000F0A6F800F0F0F8264801F08FFB00F0D6
:100FDC006DF932220021244800F082F9012200210F
:100FEC00224800F07DF901220021214800F078F917
:100FFC00012200211F4800F073F9012200211E4834
:10100C0000F06EF9012200211C4800F069F9012260
:10101C0000211B4800F064F901220021194800F05E
:10102C005FF901220021184800F05AF90122002131
:10103C00164800F055F901220021154800F050F92E
:10104C00144B01221A60FA2000F04AFB4FF4FA709C
:10105C0000F07AFB00F0CCF9FFF7A2FCFFF7D8F90F
:10106C00F8E700BF180100207D0F0008910F000861
:10107C0085160008B9160008211700088917000802
:10108C00BD170008710100083D02000809030008A3
:10109C005D090008C000002080B590B000AF07F1DA
:1010AC00180328220021184601F0D0FE3B1D002217
:1010BC001A605A609A60DA601A610223BB610123DC
:1010CC00BB621023FB6200237B6307F118031846F5
:1010DC0000F0E0FE0346002B01D000F0E1F80F23F6
:1010EC007B600023BB600023FB6000233B6100237B
:1010FC007B613B1D0021184601F04CF90346002B87
:10110C0001D000F0CDF800BF4037BD4680BD0000D7
:10111C0080B586B000AF07F1080300221A605A6050
:10112C009A60DA603B4600221A605A601D4B4FF001
:10113C0080421A601B4B41F63F725A60194B0022D9
:10114C009A60184B0922DA60164B00221A61154B73
:10115C0000229A61134801F079FA0346002B01D062
:10116C0000F09EF84FF48053BB6007F1080319465A
:10117C000C4801F0F7FB0346002B01D000F090F86F
:10118C0000233B6000237B603B461946054801F079
:10119C00CFFD0346002B01D000F082F800BF1837BA
:1011AC00BD4680BD1801002080B588B000AF07F1A6
:1011BC00100300221A605A609A60DA602F4B9B6908
:1011CC002E4A43F0100393612C4B9B6903F01003E0
:1011DC00FB60FB68294B9B69284A43F0040393612D
:1011EC00264B9B6903F00403BB60BB68234B9B69D4
:1011FC00224A43F008039361204B9B6903F00803D8
:10120C007B607B68002240F6FE711D4800F011FEE9
:10121C00002243F6FF711B4800F00BFE4FF46043B5
:10122C003B6100237B610123BB6107F1100319466D
:10123C00154800F06DFC40F6FE733B6101237B61A9
:10124C000023BB610223FB6107F1100319460C4814
:10125C0000F05EFC43F6FF733B6101237B610023CE
:10126C00BB610223FB6107F110031946054800F02E
:10127C004FFC00BF2037BD4680BD00BF00100240B0
:10128C0000080140000C01400010014080B582B004
:10129C0000AF786000F086F800BF0837BD4680BD0F
:1012AC0080B400AF72B600BFFEE7000080B582B01C
:1012BC0000AF0023FB7106E0FB79184600F0F6F84E
:1012CC00FB790133FB71FB79132BF5D9034B00220E
:1012DC001A7000BF0837BD4680BD00BFDC0000207F
:1012EC0080B485B000AFF860B9607A602A4B1B7887
:1012FC00132B4AD8284B1B781946284A0B469B00BF
:10130C000B449B0013440433BA681A60244BD3E992
:10131C000023214B1B781846BB681A441F4903460F
:10132C009B0003449B000B4410331A601A4B1B7830
:10133C0019461A4A0B469B000B449B001344083376
:10134C007A681A60144B1A78134B1B78194610469E
:10135C00124A0B469B000B449B0013440C33186041
:10136C000D4B1B7819460D4A0B469B000B449B00FA
:10137C001344FA681A60084B1B780133DAB2064B37
:10138C001A70054B1B78013B01E0034B1B78184688
:10139C001437BD4680BC7047DC0000206001002083
:1013AC00E000002080B400AF064BD3E90023501CB2
:1013BC0043F10001034BC3E9000100BFBD4680BCF3
:1013CC00704700BFE000002080B483B000AF03463C
:1013DC000A46FB711346BB71FA79BB799A4201D16B
:1013EC00012300E0002318460C37BD4680BC704733
:1013FC0080B582B000AF00237B6046E0284BD3E978
:10140C000023D0B227497A6813469B0013449B00F3
:10141C000B4410331B68DBB21946FFF7D5FF0346AC
:10142C00002B2FD01F497A6813469B0013449B0056
:10143C000B441B6898471B497A6813469B0013445E
:10144C009B000B4408331B68002B04D17B681846A7
:10145C0000F02CF816E013497A6813469B001344ED
:10146C009B000B44083319680D4BD3E9002313463A
:10147C0019440C487A6813469B0013449B000344A0
:10148C00103319607B6801337B60074B1B781A465D
:10149C007B689342B2DB00BF00BF0837BD4680BDFE
:1014AC00E000002060010020DC000020B0B485B01A
:1014BC0000AF78601A4B1B781A467B68934227D290
:1014CC007B68FB6017E0FB685A1C1648F9680B46F2
:1014DC009B000B449B001844124913469B00134479
:1014EC009B000B4404461D460FCD0FC42B68236094
:1014FC00FB680133FB600A4B1B78013B1A46FB6807
:10150C009342E0D3064B1B78013BDAB2044B1A70C2
:10151C007B68DBB218461437BD46B0BC704700BFC1
:10152C00DC0000206001002080B485B000AF154BBA
:10153C009B69144A43F001039361124B9B6903F0BE
:10154C000103BB60BB680F4BDB690E4A43F0805351
:10155C00D3610C4BDB6903F080537B607B680A4BD7
:10156C005B68FB60FB6823F0E063FB60FB6843F0A7
:10157C008063FB60044AFB68536000BF1437BD46B0
:10158C0080BC7047001002400000014080B584B060
:10159C0000AF78607B681B68B3F1804F13D10C4BA4
:1015AC00DB690B4A43F00103D361094BDB6903F0A0
:1015BC000103FB60FB68002200211C2000F071FA83
:1015CC001C2000F08AFA00BF1037BD4680BD00BF5A
:1015DC000010024080B400AFFEE780B400AFFEE71D
:1015EC0080B400AFFEE780B400AFFEE780B400AF7C
:1015FC00FEE780B400AF00BFBD4680BC704780B42E
:10160C0000AF00BFBD4680BC704780B400AF00BFC8
:10161C00BD4680BC704780B500AF00F04FF900BFED
:10162C0080BD000080B500AF024801F0ABF800BFF0
:10163C0080BD00BF1801002080B400AF00BFBD46C4
:10164C0080BC704780B483B000AF7860074B1B68D8
:10165C007A6892FBF3F3064A1360064B00221A6079
:10166C0000BF0C37BD4680BC704700BF8400002013
:10167C00E8000020EC00002080B400AF094B1B6890
:10168C00002B0BDD074B1B68013B064A1360054B17
:10169C001B68002B02D1044B01221A6000BFBD460F
:1016AC0080BC7047E8000020EC00002080B400AF44
:1016BC00094B1B68002B0BDD074B1B68013B064AD3
:1016CC001360054B1B68002B02D1044B01221A60DE
:1016DC0000BFBD4680BC7047F0000020F400002025
:1016EC0080B483B000AF7860074B1B687A6892FBBC
:1016FC00F3F3064A1360064B00221A6000BF0C3746
:10170C00BD4680BC704700BF84000020F80000205C
:10171C00FC00002080B400AF094B1B68002B0BDDD4
:10172C00074B1B68013B064A1360054B1B68002BDB
:10173C0002D1044B01221A6000BFBD4680BC704729
:10174C00F8000020FC00002080B483B000AF78606B
:10175C00074B1B687A6892FBF3F3064A1360064B3F
:10176C0000221A6000BF0C37BD4680BC704700BF1A
:10177C0084000020000100200401002080B400AF90
:10178C00094B1B68002B0BDD074B1B68013B064A02
:10179C001360054B1B68002B02D1044B01221A600D
:1017AC0000BFBD4680BC7047000100200401002032
:1017BC0080B400AF094B1B68013B084A1360074B10
:1017CC001B68002B05DC064B01221A60034B6422BC
:1017DC001A6000BFBD4680BC704700BF8800002067
:1017EC0008010020FFF728FF0B480C490C4A002386
:1017FC0002E0D458C4500433C4188C42F9D3094ABB
:10180C00094C002301E013600432A242FBD301F027
:10181C00F9FAFFF7CFFB704700000020940000207E
:10182C00AC2E000898000020F4020020FEE7000017
:10183C0080B500AF084B1B68074A43F010031360D8
:10184C00032000F023F90F2000F008F8FFF76CFEDE
:10185C000023184680BD00BF0020024080B582B036
:10186C0000AF7860124B1A68124B1B7819464FF474
:10187C007A73B3FBF1F3B2FBF3F3184600F03BF9C8
:10188C000346002B01D001230EE07B680F2B0AD8F6
:10189C00002279684FF0FF3000F003F9064A7B68AC
:1018AC001360002300E0012318460837BD4680BDB5
:1018BC0080000020900000208C00002080B400AF3D
:1018CC00054B1B781A46054B1B681344034A1360DF
:1018DC0000BFBD4680BC704790000020F002002085
:1018EC0080B400AF024B1B681846BD4680BC7047E5
:1018FC00F002002080B485B000AF78607B6803F004
:10190C000703FB600C4BDB68BB60BA684FF6FF0348
:10191C001340BB60FB681A02BB68134343F0BF6300
:10192C0043F40033BB60044ABB68D36000BF143778
:10193C00BD4680BC704700BF00ED00E080B400AF36
:10194C00044BDB681B0A03F007031846BD4680BC3A
:10195C00704700BF00ED00E080B483B000AF0346D9
:10196C00FB7197F90730002B0BDBFB7903F01F029F
:10197C00064997F907305B09012000FA02F241F899
:10198C00232000BF0C37BD4680BC704700E100E04F
:10199C0080B483B000AF03463960FB7197F9073010
:1019AC00002B0ADB3B68DAB20C4997F907301201BD
:1019BC00D2B20B4483F800230AE03B68DAB2084940
:1019CC00FB7903F00F03043B1201D2B20B441A76DD
:1019DC0000BF0C37BD4680BC704700BF00E100E083
:1019EC0000ED00E080B489B000AFF860B9607A60B7
:1019FC00FB6803F00703FB61FB69C3F10703042BCE
:101A0C0028BF0423BB61FB690433062B02D9FB6995
:101A1C00033B00E000237B614FF0FF32BB6902FA0D
:101A2C0003F3DA43BB681A407B699A404FF0FF31ED
:101A3C007B6901FA03F3D9437B680B4013431846C7
:101A4C002437BD4680BC704780B582B000AF78604B
:101A5C007B68013BB3F1807F01D301230FE00A4A7D
:101A6C007B68013B53600F214FF0FF30FFF790FF75
:101A7C00054B00229A60044B07221A60002318467B
:101A8C000837BD4680BD00BF10E000E080B582B0D5
:101A9C0000AF78607868FFF72DFF00BF0837BD46B0
:101AAC0080BD80B586B000AF0346B9607A60FB7329
:101ABC0000237B61FFF742FF78617A68B968786927
:101ACC00FFF790FF024697F90F3011461846FFF7C3
:101ADC005FFF00BF1837BD4680BD80B582B000AF38
:101AEC000346FB7197F907301846FFF735FF00BF27
:101AFC000837BD4680BD80B582B000AF786078688D
:101B0C00FFF7A2FF034618460837BD4680BD00000C
:101B1C0080B48BB000AF7860396000237B62002307
:101B2C003B6248E101227B6A02FA03F3FB613B68EA
:101B3C001B68FA691340BB61BA69FB699A4240F0B1
:101B4C0037813B685B68A34A93425ED0A14A9342BB
:101B5C0075D8A14A934258D09F4A93426FD89F4A56
:101B6C00934252D09D4A934269D89D4A93424CD09D
:101B7C009B4A934263D89B4A934246D0994A9342DC
:101B8C005DD8122B2AD8122B59D801A252F823F067
:101B9C00171C0008F11B0008031C0008451C00085A
:101BAC004B1C00084B1C00084B1C00084B1C00086D
:101BBC004B1C00084B1C00084B1C00084B1C00085D
:101BCC004B1C00084B1C00084B1C00084B1C00084D
:101BDC004B1C0008F91B00080D1C0008824A93429C
:101BEC0013D02CE03B68DB683B6229E03B68DB6888
:101BFC0004333B6224E03B68DB6808333B621FE044
:101C0C003B68DB680C333B621AE03B689B68002B3B
:101C1C0002D104233B6213E03B689B68012B05D186
:101C2C0008233B627B68FA691A6109E008233B626E
:101C3C007B68FA695A6103E000233B6200E000BF55
:101C4C00BB69FF2B01D87B6801E07B6804337B61A7
:101C5C00BB69FF2B02D87B6A9B0002E07B6A083BC6
:101C6C009B003B617B691A680F213B6901FA03F306
:101C7C00DB431A40396A3B6901FA03F31A437B6967
:101C8C001A603B685B6803F08053002B00F0908077
:101C9C00564B9B69554A43F001039361534B9B6927
:101CAC0003F00103BB60BB68514A7B6A9B0802339B
:101CBC0052F82330FB607B6A03F003039B000F2276
:101CCC0002FA03F3DB43FA681340FB607B68494A72
:101CDC0093420DD07B68484A934207D07B68474AB1
:101CEC00934201D1022304E0032302E0012300E02C
:101CFC0000237A6A02F0030292009340FA681343BD
:101D0C00FB603B497B6A9B080233FA6841F823204D
:101D1C003B685B6803F48013002B06D0384B9A6841
:101D2C003749BB6913438B6006E0354B9A68BB6936
:101D3C00DB43334913408B603B685B6803F400134F
:101D4C00002B06D02E4BDA682D49BB691343CB60B0
:101D5C0006E02B4BDA68BB69DB4329491340CB60A7
:101D6C003B685B6803F40033002B06D0244B5A68A5
:101D7C002349BB6913434B6006E0214B5A68BB698E
:101D8C00DB431F4913404B603B685B6803F48033B3
:101D9C00002B06D01A4B1A681949BB6913430B6008
:101DAC0006E0174B1A68BB69DB43154913400B60FF
:101DBC007B6A01337B623B681A687B6A22FA03F305
:101DCC00002B7FF4AFAE00BF00BF2C37BD4680BCEC
:101DDC00704700BF000032100000311000002210CC
:101DEC000000211000001210000011100010024021
:101DFC000000014000080140000C014000100140AF
:101E0C000004014080B485B000AF78600B467B8045
:101E1C007B689A687B881340002B02D00123FB73EC
:101E2C0001E00023FB73FB7B18461437BD4680BCD6
:101E3C00704780B483B000AF78600B467B8013464C
:101E4C007B707B78002B03D07A887B681A6103E067
:101E5C007B881A047B681A6100BF0C37BD4680BCB6
:101E6C00704780B485B000AF78600B467B807B6890
:101E7C00DB68FB607A88FB6813401A04FB68D94363
:101E8C007B880B401A437B681A6100BF1437BD4630
:101E9C0080BC704780B586B000AF78607B68002B43
:101EAC0001D101236CE27B681B6803F00103002B5A
:101EBC0000F08780924B5B6803F00C03042B0CD072
:101ECC008F4B5B6803F00C03082B12D18C4B5B68B7
:101EDC0003F48033B3F5803F0BD1894B1B6803F4BB
:101EEC000033002B6CD07B685B68002B68D101231E
:101EFC0046E27B685B68B3F5803F06D1804B1B687C
:101F0C007F4A43F4803313602EE07B685B68002BC0
:101F1C000CD17B4B1B687A4A23F480331360784BCB
:101F2C001B68774A23F4802313601DE07B685B6891
:101F3C00B3F5A02F0CD1724B1B68714A43F480236C
:101F4C0013606F4B1B686E4A43F4803313600BE0D5
:101F5C006B4B1B686A4A23F480331360684B1B6815
:101F6C00674A23F4802313607B685B68002B13D0D3
:101F7C00FFF7B6FC386108E0FFF7B2FC02463B699C
:101F8C00D31A642B01D90323FAE15D4B1B6803F4CC
:101F9C000033002BF0D014E0FFF7A2FC386108E00E
:101FAC00FFF79EFC02463B69D31A642B01D903232D
:101FBC00E6E1534B1B6803F40033002BF0D100E037
:101FCC0000BF7B681B6803F00203002B63D04C4BF3
:101FDC005B6803F00C03002B0BD0494B5B6803F0E0
:101FEC000C03082B1CD1464B5B6803F48033002B8D
:101FFC0016D1434B1B6803F00203002B05D07B6802
:10200C001B69012B01D00123BAE13D4B1B6823F066
:10201C00F8027B685B69DB00394913430B603AE0DB
:10202C007B681B69002B20D0364B01221A60FFF70E
:10203C0057FC386108E0FFF753FC02463B69D31AA2
:10204C00022B01D903239BE12D4B1B6803F00203E8
:10205C00002BF0D02A4B1B6823F0F8027B685B69DD
:10206C00DB00274913430B6015E0264B00221A6056
:10207C00FFF736FC386108E0FFF732FC02463B699B
:10208C00D31A022B01D903237AE11D4B1B6803F0F1
:10209C000203002BF0D17B681B6803F00803002BB4
:1020AC003AD07B689B69002B19D0174B01221A6020
:1020BC00FFF716FC386108E0FFF712FC02463B699B
:1020CC00D31A022B01D903235AE10D4B5B6A03F09F
:1020DC000203002BF0D0012000F09AFA1CE00A4B0E
:1020EC0000221A60FFF7FCFB38610FE0FFF7F8FBEA
:1020FC0002463B69D31A022B08D9032340E100BFE7
:10210C000010024000004242800442429E4B5B6A37
:10211C0003F00203002BE9D17B681B6803F0040376
:10212C00002B00F0A6800023FB75974BDB6903F0B6
:10213C008053002B0DD1944BDB69934A43F08053B1
:10214C00D361914BDB6903F08053BB60BB68012307
:10215C00FB758E4B1B6803F48073002B18D18B4BD3
:10216C001B688A4A43F480731360FFF7B9FB38612C
:10217C0008E0FFF7B5FB02463B69D31A642B01D983
:10218C000323FDE0814B1B6803F48073002BF0D01C
:10219C007B68DB68012B06D17B4B1B6A7A4A43F0C8
:1021AC00010313622DE07B68DB68002B0CD1764BAE
:1021BC001B6A754A23F001031362734B1B6A724A44
:1021CC0023F0040313621CE07B68DB68052B0CD145
:1021DC006D4B1B6A6C4A43F0040313626A4B1B6A17
:1021EC00694A43F0010313620BE0674B1B6A664AB2
:1021FC0023F001031362644B1B6A634A23F004034C
:10220C0013627B68DB68002B15D0FFF769FB386124
:10221C000AE0FFF765FB02463B69D31A41F28832AC
:10222C00934201D90323ABE0574B1B6A03F0020323
:10223C00002BEED014E0FFF753FB38610AE0FFF7F8
:10224C004FFB02463B69D31A41F28832934201D9C3
:10225C00032395E04C4B1B6A03F00203002BEED1D9
:10226C00FB7D012B05D1484BDB69474A23F080539A
:10227C00D3617B68DB69002B00F08180424B5B688B
:10228C0003F00C03082B61D07B68DB69022B46D171
:10229C003F4B00221A60FFF723FB386108E0FFF781
:1022AC001FFB02463B69D31A022B01D9032367E0BB
:1022BC00354B1B6803F00073002BF0D17B681B6A55
:1022CC00B3F5803F08D1304B5B6823F400327B6858
:1022DC009B682D4913434B602B4B5B6823F47412A2
:1022EC007B68196A7B685B6A0B43274913434B6015
:1022FC00274B01221A60FFF7F3FA386108E0FFF769
:10230C00EFFA02463B69D31A022B01D9032337E0BB
:10231C001D4B1B6803F00073002BF0D02FE01C4BFF
:10232C0000221A60FFF7DCFA386108E0FFF7D8FAF0
:10233C0002463B69D31A022B01D9032320E0124B2E
:10234C001B6803F00073002BF0D118E07B68DB698D
:10235C00012B01D1012313E00B4B5B68FB60FB6885
:10236C0003F480327B681B6A9A4206D1FB6803F443
:10237C0070127B685B6A9A4201D0012300E0002353
:10238C0018461837BD4680BD001002400070004052
:10239C006000424280B584B000AF786039607B68E1
:1023AC00002B01D10123D0E06A4B1B6803F007031B
:1023BC003A689A4210D9674B1B6823F007026549AB
:1023CC003B6813430B60634B1B6803F007033A68CD
:1023DC009A4201D00123B8E07B681B6803F002032A
:1023EC00002B20D07B681B6803F00403002B05D066
:1023FC00594B5B68584A43F4E06353607B681B6835
:10240C0003F00803002B05D0534B5B68524A43F48E
:10241C0060535360504B5B6823F0F0027B689B6801
:10242C004D4913434B607B681B6803F00103002B81
:10243C0040D07B685B68012B07D1474B1B6803F4CA
:10244C000033002B15D101237FE07B685B68022BE6
:10245C0007D1414B1B6803F00073002B09D10123FA
:10246C0073E03D4B1B6803F00203002B01D10123E9
:10247C006BE0394B5B6823F003027B685B68364981
:10248C0013434B60FFF72CFAF8600AE0FFF728FAC9
:10249C000246FB68D31A41F28832934201D90323D6
:1024AC0053E02D4B5B6803F00C027B685B689B0070
:1024BC009A42EBD1274B1B6803F007033A689A4208
:1024CC0010D2244B1B6823F0070222493B681343AC
:1024DC000B60204B1B6803F007033A689A4201D04B
:1024EC00012332E07B681B6803F00403002B08D047
:1024FC00194B5B6823F4E0627B68DB681649134375
:10250C004B607B681B6803F00803002B09D0124B4F
:10251C005B6823F460527B681B69DB000E49134334
:10252C004B6000F021F802460B4B5B681B0903F073
:10253C000F030A49CB5C22FA03F3094A1360094BD7
:10254C001B681846FFF78AF9002318461037BD465A
:10255C0080BD00BF0020024000100240802E000809
:10256C00800000208C00002080B487B000AF0023D6
:10257C00FB600023BB6000237B6100237B60002396
:10258C003B611E4B5B68FB60FB6803F00C03042B88
:10259C0002D0082B03D027E0194B3B6127E0FB68E6
:1025AC009B0C03F00F03174AD35C7B60FB6803F4AE
:1025BC008033002B10D0114B5B685B0C03F00103D4
:1025CC00114AD35CBB607B680D4A02FB03F2BB680B
:1025DC00B2FBF3F37B6104E07B680C4A02FB03F370
:1025EC007B617B693B6102E0054B3B6100BF3B6952
:1025FC0018461C37BD4680BC704700BF0010024017
:10260C0000127A00902E0008A02E000800093D0050
:10261C0080B485B000AF78600A4B1B680A4AA2FBF5
:10262C0003235B0A7A6802FB03F3FB6000BFFB68C1
:10263C005A1EFA60002BF9D100BF00BF1437BD46FB
:10264C0080BC704780000020D34D621080B582B0F2
:10265C0000AF78607B68002B01D1012341E07B68DF
:10266C0093F83D30DBB2002B06D17B68002283F857
:10267C003C207868FEF78AFF7B68022283F83D20B5
:10268C007B681A687B6804331946104600F056FACA
:10269C007B68012283F846207B68012283F83E2068
:1026AC007B68012283F83F207B68012283F840205D
:1026BC007B68012283F841207B68012283F8422049
:1026CC007B68012283F843207B68012283F8442035
:1026DC007B68012283F845207B68012283F83D202A
:1026EC00002318460837BD4680BD000080B485B075
:1026FC0000AF78607B6893F83D30DBB2012B01D0E2
:10270C00012335E07B68022283F83D207B681B683F
:10271C00DA687B681B6842F00102DA607B681B6830
:10272C00164A934209D07B681B68B3F1804F04D0E2
:10273C007B681B68124A934211D17B681B689B68AB
:10274C0003F00703FB60FB68062B10D07B681B684B
:10275C001A687B681B6842F001021A6007E07B680C
:10276C001B681A687B681B6842F001021A60002320
:10277C0018461437BD4680BC704700BF002C014082
:10278C000004004080B584B000AF78607B681B68A3
:10279C00DB68FB607B681B681B69BB60BB6803F074
:1027AC000203002B20D0FB6803F00203002B1BD08C
:1027BC007B681B686FF002021A617B6801221A7732
:1027CC007B681B689B6903F00303002B03D07868BC
:1027DC0000F098F905E0786800F08BF9786800F063
:1027EC009AF97B6800221A77BB6803F00403002B6C
:1027FC0020D0FB6803F00403002B1BD07B681B6804
:10280C006FF004021A617B6802221A777B681B68DE
:10281C009B6903F44073002B03D0786800F072F9C5
:10282C0005E0786800F065F9786800F074F97B6869
:10283C0000221A77BB6803F00803002B20D0FB683A
:10284C0003F00803002B1BD07B681B686FF0080299
:10285C001A617B6804221A777B681B68DB6903F0BA
:10286C000303002B03D0786800F04CF905E078687E
:10287C0000F03FF9786800F04EF97B6800221A7777
:10288C00BB6803F01003002B20D0FB6803F010038F
:10289C00002B1BD07B681B686FF010021A617B68E1
:1028AC0008221A777B681B68DB6903F44073002BE2
:1028BC0003D0786800F026F905E0786800F019F983
:1028CC00786800F028F97B6800221A77BB6803F05F
:1028DC000103002B0CD0FB6803F00103002B07D085
:1028EC007B681B686FF001021A617868FEF7CEFCFA
:1028FC00BB6803F08003002B0CD0FB6803F0800353
:10290C00002B07D07B681B686FF080021A61786817
:10291C0000F06FFABB6803F04003002B0CD0FB688F
:10292C0003F04003002B07D07B681B686FF040025C
:10293C001A61786800F0F8F8BB6803F02003002BEC
:10294C000CD0FB6803F02003002B07D07B681B68BE
:10295C006FF020021A61786800F042FA00BF10375D
:10296C00BD4680BD80B584B000AF7860396000236F
:10297C00FB737B6893F83C30012B01D10223B4E04C
:10298C007B68012283F83C207B68022283F83D207F
:10299C007B681B689B68BB60BB6823F07703BB60DC
:1029AC00BB6823F47F43BB607B681B68BA689A6082
:1029BC003B681B68B3F5005F3ED0B3F5005F00F2D7
:1029CC008780B3F5805F00F08680B3F5805F7FD899
:1029DC00702B1AD0702B7BD8602B50D0602B77D8F3
:1029EC00502B3CD0502B73D8402B58D0402B6FD849
:1029FC00302B64D0302B6BD8202B60D0202B67D899
:102A0C00002B5CD0102B5AD062E07B6818683B68B6
:102A1C0099683B685A683B68DB6800F06AF97B6828
:102A2C001B689B68BB60BB6843F07703BB607B682B
:102A3C001B68BA689A604FE07B6818683B689968B5
:102A4C003B685A683B68DB6800F053F97B681B688D
:102A5C009A687B681B6842F480429A603CE07B6811
:102A6C0018683B6859683B68DB681A4600F0CAF87E
:102A7C007B681B685021184600F021F92CE07B681C
:102A8C0018683B6859683B68DB681A4600F0E8F840
:102A9C007B681B686021184600F011F91CE07B680C
:102AAC0018683B6859683B68DB681A4600F0AAF85E
:102ABC007B681B684021184600F001F90CE07B682C
:102ACC001A683B681B681946104600F0F8F803E0DA
:102ADC000123FB7300E000BF7B68012283F83D20DB
:102AEC007B68002283F83C20FB7B18461037BD46E0
:102AFC0080BD80B483B000AF786000BF0C37BD469A
:102B0C0080BC704780B483B000AF786000BF0C37D6
:102B1C00BD4680BC704780B483B000AF786000BF06
:102B2C000C37BD4680BC704780B483B000AF786072
:102B3C0000BF0C37BD4680BC7047000080B485B028
:102B4C0000AF786039607B681B68FB607B682B4A40
:102B5C00934207D07B68B3F1804F03D07B68284A3F
:102B6C00934208D1FB6823F07003FB603B685B6801
:102B7C00FA681343FB607B68204A934207D07B685A
:102B8C00B3F1804F03D07B681D4A934208D1FB6898
:102B9C0023F44073FB603B68DB68FA681343FB600B
:102BAC00FB6823F080023B685B691343FB607B6826
:102BBC00FA681A603B689A687B68DA623B681A6844
:102BCC007B689A627B680D4A934203D13B681A6911
:102BDC007B681A637B6801225A617B681B6903F06E
:102BEC000103002B05D07B681B6923F001027B6875
:102BFC001A6100BF1437BD4680BC7047002C0140E1
:102C0C000004004080B487B000AFF860B9607A600F
:102C1C00FB681B6A7B61FB681B6A23F00102FB6883
:102C2C001A62FB689B693B613B6923F0F0033B61D3
:102C3C007B681B013A6913433B617B6923F00A03F0
:102C4C007B617A69BB6813437B61FB683A699A6163
:102C5C00FB687A691A6200BF1C37BD4680BC70479E
:102C6C0080B487B000AFF860B9607A60FB681B6A0B
:102C7C007B61FB681B6A23F01002FB681A62FB681D
:102C8C009B693B613B6923F470433B617B681B038D
:102C9C003A6913433B617B6923F0A0037B61BB68FA
:102CAC001B017A6913437B61FB683A699A61FB6883
:102CBC007A691A6200BF1C37BD4680BC704780B46D
:102CCC0085B000AF786039607B689B68FB60FB68FF
:102CDC0023F07003FB603A68FB68134343F007036F
:102CEC00FB607B68FA689A6000BF1437BD4680BCF5
:102CFC00704780B487B000AFF860B9607A603B6011
:102D0C00FB689B687B617B6923F47F437B613B6839
:102D1C001A027B681A43BB6813437A6913437B61BD
:102D2C00FB687A699A6000BF1C37BD4680BC70474F
:102D3C0080B485B000AF786039607B6893F83C3024
:102D4C00012B01D1022341E07B68012283F83C2056
:102D5C007B68022283F83D207B681B685B68FB6004
:102D6C007B681B689B68BB60FB6823F07003FB608F
:102D7C003B681B68FA681343FB607B681B68FA6846
:102D8C005A607B681B68144A934209D07B681B68A5
:102D9C00B3F1804F04D07B681B68104A93420CD16E
:102DAC00BB6823F08003BB603B685B68BA68134365
:102DBC00BB607B681B68BA689A607B68012283F8E9
:102DCC003D207B68002283F83C20002318461437F2
:102DDC00BD4680BC704700BF002C01400004004081
:102DEC0080B483B000AF786000BF0C37BD4680BCA8
:102DFC00704780B483B000AF786000BF0C37BD461D
:102E0C0080BC704770B500260C4D0D4C641BA41093
:102E1C00A64209D100F022F800260A4D0A4C641B88
:102E2C00A410A64205D170BD55F8043B9847013655
:102E3C00EEE755F8043B98470136F2E7A42E00085C
:102E4C00A42E0008A42E0008A82E00080346024455
:102E5C00934200D1704703F8011BF9E7F8B500BFA6
:102E6C00F8BC08BC9E467047F8B500BFF8BC08BC5F
:042E7C009E467047B7
:102E8000000000000000000001020304060708091A
:102E900002030405060708090A0B0C0D0E0F10109B
:042EA000010200002B
:042EA40031010008F0
:042EA8000D01000810
:102EAC000100000001000000010000000100000012
:102EBC00C80000000100000001000000010000003B
:102ECC0001000000C800000001000000010000002B
:102EDC000100000001000000C80000000900000013
:102EEC0008000000020000000100000001000000CA
:102EFC0001000000010000000A0000000B000000AF
:102F0C000C0000000D0000000A0000000200000090
:102F1C0008000000407924301912027800100000DB
:102F2C0000127A000A00000064000000100000008B
:042F3C000100000090
:04000005080017F1E7
:00000001FF
